:020000040800F2
:1000000078060020350200083D0200083F02000883
:1000100041020008430200084502000800000000F9
:10002000000000000000000000000000470200087F
:1000300049020008000000004B0200084D020008C1
:100040004F0200084F0200084F0200084F0200084C
:100050004F0200084F0200084F0200084F0200083C
:100060004F0200084F0200084F0200084F0200082C
:100070004F0200084F0200084F0200084F0200081C
:100080004F0200084F0200084F0200080000000065
:100090000000000000000000000000004F02000807
:1000A0004F0200084F0200084F0200084F020008EC
:1000B0004F0200084F0200084F0200084F020008DC
:1000C0004F0200084F0200084F0200084F020008CC
:1000D0004F0200084F0200084F0200080000000015
:1000E0004F0200084F0200084F0200080000000005
:1000F0000000000000000000000000004F020008A7
:10010000000000004F0200084F0200084F020008E4
:1001100000000000000000000000000000000000DF
:100120004F0200084F0200084F0200084F0200086B
:100130004F02000800000000000000000000000066
:100140000000000000000000000000004F02000856
:100150004F0200084F0200084F0200084F0200083B
:100160004F0200084F0200080000000000000000DD
:10017000000000000000000000000000000000007F
:10018000000000004F020008000000000000000016
:100190004F02000800F002F800F03CF80AA090E8D6
:1001A000000C82448344AAF10107DA4501D100F032
:1001B00031F8AFF2090EBAE80F0013F0010F18BFC3
:1001C000FB1A43F001031847740400009404000074
:1001D000103A24BF78C878C1FAD8520724BF30C873
:1001E00030C144BF04680C60704700000023002445
:1001F00000250026103A28BF78C1FBD8520728BF37
:1002000030C148BF0B6070471FB500F011FA1FBD29
:1002100010B510BD00F031F81146FFF7F5FF00F002
:100220009FF900F04FF803B4FFF7F2FF03BC00F0B2
:1002300057F800000948804709480047FEE7FEE7F5
:10024000FEE7FEE7FEE7FEE7FEE7FEE7FEE7FEE786
:1002500004480549054A064B704700003103000871
:100260009501000878000020780600207802002020
:1002700078020020704770477047754600F02CF8F0
:10028000AE4605006946534620F00700854618B083
:1002900020B5FFF7DDFFBDE820404FF000064FF02E
:1002A00000074FF000084FF0000B21F00701AC46AB
:1002B000ACE8C009ACE8C009ACE8C009ACE8C009CA
:1002C0008D46704710B50446AFF300802046BDE868
:1002D0001040FFF7A8BF000000487047140000203E
:1002E00001491820ABBEFEE726000200704700005F
:1002F0000548006840F00100034908604FF05530A0
:100300000249086070470000303802400000024097
:100310000548006840F00200034908604FF0AA4019
:100320000249086070470000303802400004024073
:100330001448006840F470001249086012480068D0
:1003400040F001001049086000200F4908310860A2
:100350000D4800680D4908400B4908600C48091D0C
:100360000860081F006820F48020091F0860002032
:1003700005490C3108604FF000600249803908607F
:100380007047000088ED00E000380240FFFFF6FEF5
:1003900010300024F0B505460026D7E06D4804680B
:1003A0000027CDE000206C4908604EF6FF706949D7
:1003B000091D0860081F0468A4F56B40FF38F8B1F8
:1003C000B0F5007F0FD0B0F5407F26D163480078AC
:1003D00028B9012000F016F90120604908700120B9
:1003E0005D49086019E05D48007828B9022000F0F6
:1003F00009F90120594908700120574908600CE0AB
:100400005648007828B9032000F0FCF80120534931
:10041000087001205049086000BF00BF4DF6FF7012
:100420004C49091D0860081F0468A4F55B40FF38AB
:10043000F8B1B0F5007F0FD0B0F5407F26D1474826
:10044000007828B9042000F0DDF801204349087045
:1004500002204149086019E04048007828B9052089
:1004600000F0D0F801203D49087002203A490860A8
:100470000CE03A48007828B9062000F0C3F80120C3
:100480003649087002203449086000BF00BF4BF6AF
:10049000FF703049091D0860081F0468A4F53B403F
:1004A000FF38F8B1B0F5007F0FD0B0F5407F26D10E
:1004B0002A48007828B9072000F0A4F8012027492D
:1004C000087003202449086019E02448007828B9FE
:1004D000082000F097F801202049087003201E49E9
:1004E00008600CE01D48007828B9092000F08AF85F
:1004F00001201A49087003201749086000BF00BF97
:1005000047F6FF701349091D0860081F0468A4F529
:10051000FA40FF3860B91148007828B9002000F08F
:1005200071F801200D49087004200B49086000BFD4
:1005300000BF0948006810B90020084908707F1CF6
:1005400044F620608742FFF62DAF761CAE42FFF6E0
:1005500025AFF0BD10040240100000200E00002066
:10056000FFF7C6FEFFF7D4FE47E024480078244991
:1005700048610846406940F4807048610120FFF7F7
:1005800009FF00201E4948610120FFF703FF1B48B7
:1005900040781B4948610846406940F40070486152
:1005A0000120FFF7F7FE0020154948610120FFF701
:1005B000F1FE12488078124948610846406940F4CB
:1005C000806048610120FFF7E5FE00200C4948618A
:1005D0000120FFF7DFFE0948C07809494861084655
:1005E000406940F4006048610120FFF7D3FE00201D
:1005F000034948610120FFF7CDFEB6E70000002067
:100600000000024010B50146022005E0064A135CD6
:100610001446421CA354401E0028F7DA034A525CD9
:10062000014B1A7010BD00000000002004000020E3
:100630004FF04070E1EE100A704700005C060008C1
:100640000000002014000000D0010008700600081F
:100650001400002064060000EC010008077D3F4FF5
:100660003F065B4F666D7D077F6F00000000000056
:040000050800019559
:00000001FF
