:020000040800F2
:1000000000060020950100089D0100089F010008DE
:10001000A1010008A3010008A501000800000000DC
:10002000000000000000000000000000A701000820
:10003000A901000800000000AB010008AD010008A4
:10004000AF010008AF010008AF010008AF010008D0
:10005000AF010008AF010008AF010008AF010008C0
:10006000AF010008AF010008AF010008AF010008B0
:10007000AF010008AF010008AF010008AF010008A0
:10008000AF010008AF010008AF0100080000000048
:10009000000000000000000000000000AF010008A8
:1000A000AF010008AF010008AF010008AF01000870
:1000B000AF010008AF010008AF010008AF01000860
:1000C000AF010008AF010008AF010008AF01000850
:1000D000AF010008AF010008AF01000800000000F8
:1000E000AF010008AF010008AF01000800000000E8
:1000F000000000000000000000000000AF01000848
:1001000000000000AF010008AF010008AF010008C7
:1001100000000000000000000000000000000000DF
:10012000AF010008AF010008AF010008AF010008EF
:10013000AF01000800000000000000000000000007
:10014000000000000000000000000000AF010008F7
:10015000AF010008AF010008AF010008AF010008BF
:10016000AF010008AF01000800000000000000001F
:10017000000000000000000000000000000000007F
:1001800000000000AF0100080000000000000000B7
:10019000AF0100080948804709480047FEE7FEE72D
:1001A000FEE7FEE7FEE7FEE7FEE7FEE7FEE7FEE727
:1001B00004480549054A064B70470000E301000862
:1001C00001020008000000200006002000020020BC
:1001D00000020020704770477047000004030006CB
:1001E00007006349086840F0030008606149086837
:1001F0004FF055300860604908684FF0AA40086029
:100200005E494FF6FF7008605D4A4EF6FF7313605B
:100210005C4A106801464FF6FF6440EA0400A042C1
:1002200051D04FF6FF54084640EA0400A04259D08E
:100230004FF6FF34084640EA0400A04262D0504A1C
:100240004DF6FF7313604F4A106801464FF6FF6486
:1002500040EA0400A04265D04FF6FF54084640EA49
:100260000400A0426ED04FF6FF34084640EA040076
:10027000A04277D0424A4BF6FF731360414A1068A0
:1002800001464FF6FF6440EA0400A0426AD04FF6F0
:10029000FF54084640EA0400A04263D04FF6FF3402
:1002A000084640EA0400A0425CD0354A47F6FF7396
:1002B0001360344A106801464FF6FF5440EA0400C8
:1002C000A0424FD0A0E72D492F4A92F900301C469A
:1002D00003FB03F303FB04F3642B01D9643BFBE74B
:1002E0000B6091E72549284A521C92F900301C46C0
:1002F00003FB03F303FB04F3642B01D9643BFBE72B
:100300000B6081E71D49204A921C92F900301C467F
:1003100003FB03F303FB04F3642B01D9643BFBE70A
:100320000B6071E71549184AD21C92F900301C463F
:1003300003FB03F303FB04F3642B01D9643BFBE7EA
:100340000B6061E70D49104A121D92F900301C46FE
:1003500003FB03F303FB04F3642B01D9643BFBE7CA
:100360000B6051E705494FF000020A604CE70000BE
:1003700030380240000002400004024014000240F5
:0C0380001404024010040240DC010008DC
:0400000500000000F7
:00000001FF
