:020000040800F2
:1000000078060020350200083D0200083F02000883
:1000100041020008430200084502000800000000F9
:10002000000000000000000000000000470200087F
:1000300049020008000000004B0200084D020008C1
:100040004F0200084F0200084F0200084F0200084C
:100050004F0200084F0200084F0200084F0200083C
:100060004F0200084F0200084F0200084F0200082C
:100070004F0200084F0200084F0200084F0200081C
:100080004F0200084F0200084F0200080000000065
:100090000000000000000000000000004F02000807
:1000A0004F0200084F0200084F0200084F020008EC
:1000B0004F0200084F0200084F0200084F020008DC
:1000C0004F0200084F0200084F0200084F020008CC
:1000D0004F0200084F0200084F0200080000000015
:1000E0004F0200084F0200084F0200080000000005
:1000F0000000000000000000000000004F020008A7
:10010000000000004F0200084F0200084F020008E4
:1001100000000000000000000000000000000000DF
:100120004F0200084F0200084F0200084F0200086B
:100130004F02000800000000000000000000000066
:100140000000000000000000000000004F02000856
:100150004F0200084F0200084F0200084F0200083B
:100160004F0200084F0200080000000000000000DD
:10017000000000000000000000000000000000007F
:10018000000000004F020008000000000000000016
:100190004F02000800F002F800F03CF80AA090E8D6
:1001A000000C82448344AAF10107DA4501D100F032
:1001B00031F8AFF2090EBAE80F0013F0010F18BFC3
:1001C000FB1A43F001031847D0040000F0040000BC
:1001D000103A24BF78C878C1FAD8520724BF30C873
:1001E00030C144BF04680C60704700000023002445
:1001F00000250026103A28BF78C1FBD8520728BF37
:1002000030C148BF0B6070471FB500F03FFA1FBDFB
:1002100010B510BD00F031F81146FFF7F5FF00F002
:10022000FBF900F04FF803B4FFF7F2FF03BC00F056
:1002300057F800000948804709480047FEE7FEE7F5
:10024000FEE7FEE7FEE7FEE7FEE7FEE7FEE7FEE786
:1002500004480549054A064B704700006D03000835
:100260009501000878000020780600207802002020
:1002700078020020704770477047754600F02CF8F0
:10028000AE4605006946534620F00700854618B083
:1002900020B5FFF7DDFFBDE820404FF000064FF02E
:1002A00000074FF000084FF0000B21F00701AC46AB
:1002B000ACE8C009ACE8C009ACE8C009ACE8C009CA
:1002C0008D46704710B50446AFF300802046BDE868
:1002D0001040FFF7A8BF000000487047140000203E
:1002E00001491820ABBEFEE726000200704700005F
:1002F00010B504460C4800684FF6FC7108400A49E6
:1003000008600A4844610846006840F0040008603C
:10031000012000F035F90448006841F21B11084043
:100320000149086010BD00001408024000000240AE
:1003300010B5044601200B4908600B48446108468B
:10034000006840F004000860012000F019F9054839
:10035000006841F21B11084002490860022000F0C9
:100360000FF910BD14080240000002401448006854
:1003700040F47000124908601248006840F0010023
:100380001049086000200F49083108600D480068D6
:100390000D4908400B4908600C48091D0860081FFA
:1003A000006820F48020091F0860002005490C31F6
:1003B00008604FF000600249803908607047000013
:1003C00088ED00E000380240FFFFF6FE1030002408
:1003D00010B5684804680020674908604EF6FF7051
:1003E0006449091D0860081F0468A4F56B40FF38C4
:1003F000F8B1B0F5007F0FD0B0F5407F26D15F484F
:10040000007828B9012000F02BF901205B49087021
:1004100001205949086019E05848007828B902209D
:1004200000F01EF90120554908700120524908606A
:100430000CE05248007828B9032000F011F901209F
:100440004E49087001204C49086000BF00BF4DF6BE
:10045000FF704849091D0860081F0468A4F55B4047
:10046000FF38F8B1B0F5007F0FD0B0F5407F26D14E
:100470004248007828B9042000F0F2F801203F49F2
:10048000087002203C49086019E03C48007828B90F
:10049000052000F0E5F801203849087002203649AF
:1004A00008600CE03548007828B9062000F0D8F83C
:1004B00001203249087002202F49086000BF00BFA8
:1004C0004BF6FF702B49091D0860081F0468A4F54E
:1004D0003B40FF38F8B1B0F5007F0FD0B0F5407F5A
:1004E00026D12648007828B9072000F0B9F8012065
:1004F0002249087003202049086019E01F4800784D
:1005000028B9082000F0ACF801201C49087003202D
:10051000194908600CE01948007828B9092000F052
:100520009FF801201549087003201349086000BF97
:1005300000BF47F6FF700F49091D0860081F0468D7
:10054000A4F5FA40FF3860B90C48007828B90020BB
:1005500000F086F801200949087004200649086067
:1005600000BF00BF0448006810B9002003490870AC
:1005700010BD000010040240100000200E000020FA
:10058000002107E0002200E0521C4EF660239A4250
:10059000FADB491C8142F5DB704700B53020FFF7DC
:1005A000A7FE3820FFF7A4FE0620FFF7A1FE0120DA
:1005B000FFF79EFE0F20FFF79BFE00BD0548006879
:1005C00040F00100034908604FF0553002490860CF
:1005D00070470000303802400000024005480068C3
:1005E00040F00200034908604FF0AA400249086049
:1005F00070470000303802400004024004480068A0
:1006000040F0040002490860552002490860704724
:100610003038024000080240FFF7D0FFFFF7DEFF4E
:10062000FFF7ECFFFFF7B9FF17E00120FFF760FECF
:100630008020FFF75DFE09490878FFF779FE07493A
:100640004878FFF775FE05498878FFF771FE034982
:10065000C878FFF76DFEFFF7BBFEE6E7000000205D
:1006600010B50146022005E0064A135C1446421C00
:10067000A354401E0028F7DA034A525C014B1A705B
:1006800010BD000000000020040000204FF040706A
:10069000E1EE100A70470000B806000800000020D4
:1006A00014000000D0010008CC060008140000204F
:1006B00064060000EC010008333036373031323345
:0C06C000343536373839000000000000E7
:040000050800019559
:00000001FF
