:020000040800F2
:10000000E80600203D0200084502000847020008FB
:10001000490200084B0200084D02000800000000E1
:100020000000000000000000000000004F02000877
:1000300051020008000000005302000855020008A9
:10004000570200085702000857020008570200082C
:10005000570200085702000857020008570200081C
:10006000570200085702000857020008570200080C
:1000700057020008570200085702000857020008FC
:10008000570200085702000857020008000000004D
:1000900000000000000000000000000057020008FF
:1000A00057020008570200085702000857020008CC
:1000B00057020008570200085702000857020008BC
:1000C00057020008570200085702000857020008AC
:1000D00057020008570200085702000800000000FD
:1000E00057020008570200085702000800000000ED
:1000F000000000000000000000000000570200089F
:1001000000000000570200085702000857020008CC
:1001100000000000000000000000000000000000DF
:10012000570200085702000857020008570200084B
:10013000570200080000000000000000000000005E
:10014000000000000000000000000000570200084E
:10015000570200085702000857020008570200081B
:1001600057020008570200080000000000000000CD
:10017000000000000000000000000000000000007F
:10018000000000005702000800000000000000000E
:100190005702000800F002F800F041F80AA090E8C9
:1001A000000C82448344AAF10107DA4501D100F032
:1001B00036F8AFF2090EBAE80F0013F0010F18BFBE
:1001C000FB1A43F001031847B80A0000D80A0000E0
:1001D000103A24BF78C878C1FAD8520724BF30C873
:1001E00030C144BF04680C60704700000023002445
:1001F00000250026103A28BF78C1FBD8520728BF37
:1002000030C148BF0B607047642900F07F80002038
:1002100070471FB500F02EFD1FBD10B510BD00F0DA
:100220002AF91146FFF7F5FF00F05CFB00F048F9F2
:1002300003B4FFF7F2FF03BC00F050F90948804710
:1002400009480047FEE7FEE7FEE7FEE7FEE7FEE7B8
:10025000FEE7FEE7FEE7FEE704480549054A064BD0
:10026000704700006905000895010008E8000020BB
:10027000E8060020E8020020E80200200FB41CB5C8
:10028000074B06AA7B4469460090059800F0DBF80E
:100290000020694600F0EAF81CBC5DF814FB000081
:1002A000E50100002DE9F0410E46044600202062E1
:1002B0002046E168884730B3252805D0D4E90121DC
:1002C0009047206A401CF2E7E168204600278847F3
:1002D000050018D0A5F14100192802D820354FF4A7
:1002E00000673246294620462760FFF78DFF40B160
:1002F000012804D0F61D26F007060836D8E7361D7B
:10030000D6E72846DAE7206ABDE8F0812DE9F0411A
:100310000646002410687529314616A510D0AFF3A3
:100320000080002802DA404213A507E031688A07FE
:1003300001D512A502E0490704D511A5012401E069
:10034000AFF3008000210A2206F1240709E0B0FB88
:10035000F2FCB0FBF2F302FB1C003030785418467C
:10036000491C0028F3D123462A463046BDE8F04117
:1003700000F00BB8000000002D0000002B00000072
:10038000200000007047704770472DE9F0470D4688
:1003900099469246044600F124080168880604D56F
:1003A000E06921F01001216000E00120A84201DD98
:1003B000471B00E00027A1697A1902EB0900081A1F
:1003C000A0612078C00602D42046AFF3008000264A
:1003D00008E0D4E901211AF806009047206A401C81
:1003E000761C20624E45F4DB2078C0060AD52046F4
:1003F000AFF3008006E0D4E9012130209047206A65
:10040000401C2062381EA7F10107F4DC07E0D4E9A4
:10041000012118F805009047206A401C2062281E20
:10042000A5F10105F3DC2046AFF30080207800063B
:1004300002D50220BDE8F0870120FBE701694A1CD4
:1004400002610878704700B58FB0CDE90131002115
:10045000059105497944CDE9031011466846FFF737
:1004600021FF0FB000BD0000E5FFFFFF0A6802F8A2
:10047000010B0A607047754600F02CF8AE46050087
:100480006946534620F00700854618B020B5FFF7AF
:10049000E3FEBDE820404FF000064FF000074FF0AC
:1004A00000084FF0000B21F00701AC46ACE8C00992
:1004B000ACE8C009ACE8C009ACE8C0098D4670479B
:1004C00010B50446AFF300802046BDE81040FFF7AA
:1004D000AFBE00000048704784000020014918208A
:1004E000ABBEFEE7260002007047000010B50446D0
:1004F0000C4800684FF6FC7108400A4908600A4839
:1005000044610846006840F004000860012000F0E3
:1005100055F90448006841F21B1108400149086080
:1005200010BD0000140802400000024010B504464F
:1005300001200B4908600B4844610846006840F000
:1005400004000860012000F039F90548006841F214
:100550001B11084002490860022000F02FF910BD6D
:1005600014080240000002401448006840F4700083
:10057000124908601248006840F001001049086004
:1005800000200F49083108600D4800680D490840F7
:100590000B4908600C48091D0860081F006820F41A
:1005A0008020091F0860002005490C3108604FF0C9
:1005B00000600249803908607047000088ED00E063
:1005C00000380240FFFFF6FE10300024774908682B
:1005D0000021774A11604EF6FF71744A121D1160B6
:1005E000111F0868A0F56B41FF39F1B1B1F5007F2B
:1005F0000ED0B1F5407F25D16E49097821B901218E
:100600006D4A11606B4A11700121694A116019E04D
:100610006849097829B90221674A11600121654AB0
:1006200011700121624A11600CE06249097829B910
:100630000321614A116001215E4A117001215C4A67
:10064000116000BF00BF4DF6FF71584A121D1160C6
:10065000111F0868A0F55B41FF39F9B1B1F5007FC2
:100660000FD0B1F5407F26D15249097829B904212C
:10067000514A116001214F4A117002214C4A116008
:1006800019E04C49097829B905214B4A116001212B
:10069000484A11700221464A11600CE04549097828
:1006A00029B90621444A11600121424A11700221F0
:1006B0003F4A116000BF00BF4BF6FF713B4A121D5D
:1006C0001160111F0868A0F53B41FF39F9B1B1F580
:1006D000007F0FD0B1F5407F26D13649097829B97E
:1006E0000721354A11600121324A11700321304A35
:1006F000116019E02F49097829B908212E4A1160A3
:1007000001212C4A11700321294A11600CE029496A
:10071000097829B90921284A11600121254A117057
:100720000321234A116000BF00BF47F6FF711F4A33
:10073000121D1160111F0868A0F5F641FF3901B3C1
:10074000B1F5007F03D0B1F5407F27D10CE0194906
:10075000097829B90021184A11600121154A117040
:100760000421134A116019E01249097829B90A21B4
:10077000114A116001210F4A117004210C4A1160C5
:100780000CE00C49097829B90B210B4A11600121B1
:10079000084A11700421064A116000BF00BF0449D5
:1007A000096811B90021034A117070471004024012
:1007B000700000206C00002040000020002107E0B5
:1007C000002200E0521C4EF660239A42FADB491CDC
:1007D0008142F5DB704700B53020FFF787FE3820F7
:1007E000FFF784FE0620FFF781FE0120FFF77EFE63
:1007F0000F20FFF77BFE00BD0548006840F00100B8
:10080000034908604FF05530024908607047000006
:1008100030380240000002400448006840F0020006
:1008200002490860024803490860704730380240B6
:1008300000200055000402400E48006840F004000B
:100840000C490860D5200C4908600A48143000683B
:1008500040F480700749143108600020074988601F
:100860000D2048630020C8620846806840F00100FF
:100870008860704730380240000802400020014084
:100880001548006840F0020013490860124814300F
:10089000006840F010001049143108600F480068EB
:1008A00040F0E0600D4908600C482038006840F4D2
:1008B00000500A492039086040F283600849886086
:1008C0000C20C8600020086148610846C06840F4F8
:1008D0000050C860704700003038024020040240D9
:1008E0000010014010B5FFF787FFFFF795FFFFF7F6
:1008F000A3FFFFF770FF0120FFF7F8FD8020FFF74F
:10090000F5FDC2490878FFF711FEC0494878FFF7A6
:100910000DFEBE498878FFF709FEBC49C878FFF78D
:1009200005FEBA490879FFF701FEB8494879FFF793
:10093000FDFDB6498879FFF7F9FDB449C879FFF79D
:10094000F5FD3220FFF73AFF0120FFF7CFFD02202F
:10095000FFF7CCFD8020FFF7C9FD0020AC490860FF
:100960000AE0AC49AA4A1268885CFFF7DFFDA84894
:100970000068401CA6490860A54800681928F0DBFB
:10098000C020FFF7B3FD0020A14908600AE0A2499A
:100990009F4A1268885CFFF7C9FD9D480068401CAB
:1009A0009B4908609A4800681C28F0DB0CE0FFF7C0
:1009B0000DFE9A480068062806DC9848006818B1C1
:1009C0009648006896490860954800680028EED06F
:1009D00048E09448806840F080409249886000BFB9
:1009E0009048006800F002000028F9D08D48C06CE3
:1009F0008D490860096842F21C5201FB02F0C117E0
:100A000000EB1151091301F5FA71884A1160104683
:100A100087A102688748FFF731FC0120FFF766FDD8
:100A20000220FFF763FD8020FFF760FD002078497A
:100A300008600AE07F49764A1268885CFFF776FD15
:100A400073480068401C72490860714800680528B6
:100A5000F0D3FFF7BBFD714800680B2802D10120DD
:100A600075490870744800780028B2D00020724997
:100A700008700C206949086046E06A48806840F0C8
:100A800080406849886000BF6648006800F0020046
:100A90000028F9D06348C06C6849086009684FF4C1
:100AA0007A7201FB02F0C11700EB11510913644A7D
:100AB000116010465EA102686248FFF7DFFB01206B
:100AC000FFF714FD0220FFF711FD8020FFF70EFD58
:100AD00000204F4908600AE05A494D4A1268885C74
:100AE000FFF724FD4A480068401C4949086048480F
:100AF00000680428F0D3FFF769FD484800680B2818
:100B000002D101204C4908704B4800780028B4D02D
:100B100046480078C006000E4B4908700846007829
:100B20003F49097808434849087040480088C0F3A5
:100B3000471048703D480068C0F347308870084649
:100B400080783F49097840EA41003F4988703C4835
:100B50000088C0F3C710C8700120FFF7C7FC02204F
:100B6000FFF7C4FC8020FFF7C1FC03202849086080
:100B700021E007203549086011E03349244A126812
:100B8000895C324A1278114101F0010101F1300013
:100B9000FFF7CCFC2D480068401E2C4908602B480C
:100BA00000680028E9DA2020FFF7C0FC1848006838
:100BB000401E17490860164800680028D9DA0A2044
:100BC000FFF7FCFDFFF75CFE002000F041F81E4936
:100BD000087800F03DF80520FFF7F0FD1A49487845
:100BE00000F036F80520FFF7E9FD1749887800F096
:100BF0002FF80520FFF7E2FD1349C87800F028F828
:100C00004FF4FA70FFF7DAFD002010BD000000205D
:100C10007400002008000020210000204000002077
:100C200054000020002001404C000020440000201F
:100C300025640000590000205800002050000020CA
:100C4000480000205E0000207C000020780000208A
:100C500010B504460A20FFF7B1FD00BF0448006844
:100C600000F080000028F9D0E0B20149486010BDD2
:100C7000001001404FF04070E1EE100A7047000094
:100C8000A00C00080000002084000000D001000833
:100C9000240D00088400002064060000EC01000818
:100CA0003935323433303637312E53696E20322E97
:100CB00053716175726520332E547269616E676C71
:100CC00065342E536177746F6F746820352E5374BA
:100CD000657020362E4162732873696E290000000A
:100CE0000000000000000000000000000000000004
:100CF00000000000000000000000000000000000F4
:100D000000003031323334353637383900000000D6
:100D100000000000000000000000000000000000D3
:040D200000000000CF
:040000050800019559
:00000001FF
