:020000040800F2
:10000000A00E00207D02000885020008870200087B
:10001000890200088B0200088D0200080000000021
:100020000000000000000000000000008F02000837
:1000300091020008000000009302000895020008E9
:10004000970200089702000897020008970200082C
:10005000970200089702000897020008970200081C
:10006000970200089702000897020008970200080C
:1000700097020008970200089702000897020008FC
:10008000970200089702000897020008000000008D
:1000900000000000000000000000000097020008BF
:1000A00097020008970200089702000897020008CC
:1000B00097020008970200089702000897020008BC
:1000C00097020008970200089702000897020008AC
:1000D000970200089702000897020008000000003D
:1000E000970200089702000897020008000000002D
:1000F000000000000000000000000000970200085F
:10010000000000009702000897020008970200080C
:1001100000000000000000000000000000000000DF
:10012000970200089702000897020008970200084B
:10013000970200080000000000000000000000001E
:10014000000000000000000000000000970200080E
:10015000970200089702000897020008970200081B
:10016000970200089702000800000000000000004D
:10017000000000000000000000000000000000007F
:1001800000000000970200080000000000000000CE
:100190009702000800F002F800F060F80AA090E86A
:1001A000000C82448344AAF10107DA4501D100F032
:1001B00055F8AFF2090EBAE80F0013F0010F18BF9F
:1001C000FB1A43F001031847F80500001806000069
:1001D00010F8013B0A4413F0030408BF10F8014B68
:1001E0001D1108BF10F8015B641E05D010F8016BEB
:1001F000641E01F8016BF9D1002D15D010F8014BE8
:1002000003F00C030C2BA1EB04040ABF10F8013B14
:10021000A4EB8314A4EB032405F1010314F8016B90
:100220005B1E01F8016BF9D5914238BF10F8013B14
:10023000D1D370470023002400250026103A28BFA0
:1002400078C1FBD8520728BF30C148BF0B60704748
:100250001FB500F0AFFA1FBD10B510BD00F031F8AA
:100260001146FFF7F5FF00F0F9F800F04FF803B47E
:10027000FFF7F2FF03BC00F057F800000948804781
:1002800009480047FEE7FEE7FEE7FEE7FEE7FEE778
:10029000FEE7FEE7FEE7FEE704480549054A064B90
:1002A000704700003903000895010008A0080020ED
:1002B000A00E0020A00A0020A00A0020704770476E
:1002C0007047754600F02CF8AE4605006946534667
:1002D00020F00700854618B020B5FFF7DDFFBDE828
:1002E00020404FF000064FF000074FF000084FF09D
:1002F000000B21F00701AC46ACE8C009ACE8C0092E
:10030000ACE8C009ACE8C0098D46704710B504469A
:10031000AFF300802046BDE81040FFF7A8BF000003
:10032000004870474008002001491820ABBEFEE796
:1003300026000200704700001448006840F4700076
:10034000124908601248006840F001001049086036
:1003500000200F49083108600D4800680D49084029
:100360000B4908600C48091D0860081F006820F44C
:100370008020091F0860002005490C3108604FF0FB
:1003800000600249803908607047000088ED00E095
:1003900000380240FFFFF6FE10300024002107E085
:1003A000002200E0521C49F640439A42FADB491C05
:1003B0008142F5DB704700000548006840F001000D
:1003C000034908604FF0553002490860704700004B
:1003D00030380240000002400548006840F002004A
:1003E000034908604FF4004002490860704700006C
:1003F00030380240000402401548006840F0020016
:100400001349086012481430006840F01000104989
:10041000143108600F48006840F0E0400D49086062
:100420000C482038006840F400400A492039086030
:1004300040F28360084988600C20C8600020086191
:1004400048610846C06840F40050C860704700002A
:1004500030380240200402400010014030B5FFF760
:10046000ABFFFFF7B9FFFFF7C7FF04E000F094F917
:10047000044604B900E0F9E700BF0020BA4908606B
:100480000AE000F089F9B949B74A12688854B648B9
:100490000068401CB4490860B34800680428F0DBD9
:1004A000B248007800F00700B1490860AF48807892
:1004B000C007800CAD49497840EA4110AB49097842
:1004C00040EAE100AB490860A848C078A7498978AC
:1004D00040EA6100A8490860084600684FF47A7154
:1004E00091FBF0F0A5490860A2480068A24909689C
:1004F0004843A34908609E48006807287CD2DFE88B
:1005000000F07B043557A3CFFC000020964908601B
:1005100021E000209B49086013E09B489949096845
:1005200050F821009949486194480068642190FB83
:10053000F1F52846FFF732FF92480068401C9149C8
:10054000086090480068B0F5C87FE6DB8648006820
:10055000401C854908608A490868C11700EB917101
:10056000814A1268B2EBA10FD3DBF9E000207E498B
:10057000086013E04FF6DC70844948617F480068EA
:10058000FFF70CFF0020814948617C480068FFF7B5
:1005900005FF75480068401C734908607849086881
:1005A00000EBD071704A1268B2EB610FE2DBD7E06A
:1005B00000206D4908603DE000207249086013E0AA
:1005C00073487049096850F82100704948616B48C8
:1005D0000068642190FBF1F52846FFF7DFFE6948CB
:1005E0000068401C67490860664800686428E7DBCB
:1005F00063206449086014E0B1E065486149096816
:1006000050F82100614948615C480068642190FB12
:10061000F1F52846FFF7C2FE5A480068401E5949C6
:100620000860584800680028E7DA4F480068401C16
:100630004D4908605249086800EBD0714A4A126877
:10064000B2EB610FB8DB8BE000204749086020E087
:1006500000204C49086013E04D484A49096850F8A9
:1006600021004A49486145480068642190FBF1F542
:100670002846FFF793FE43480068401C4149086044
:10068000404800686428E7DB37480068401C36496A
:100690000860354800683A4909688842D8DB5FE05D
:1006A00000203149086020E000203649086013E04E
:1006B00038483449096850F82100344948612F48C6
:1006C00000680A2190FBF1F52846FFF767FE2D48E8
:1006D0000068401C2B4908602A4800681428E7DBA2
:1006E00021480068401C204908601F4800682449D0
:1006F00009688842D8DB33E0FFE700201A49086028
:1007000023E000201F49086016E01F481D490968C2
:1007100050F82100A0F6B24040001C49486117483B
:100720000068642190FBF1F52846FFF737FE154875
:100730000068401C1349086012480068C828E4DBC0
:1007400009480068401C084908600D49086800EB2A
:10075000D071054A1268B2EB610FD2DB00E000BF36
:1007600000BF002030BD0000040000200000002079
:100770000C000020100000201400002018000020B1
:100780001C00002008000020200000200000024083
:1007900060060020F007002000BF0548006800F058
:1007A00020000028F9D002484068C0B2704700001D
:1007B000001001404FF04070E1EE100A7047000059
:1007C000E00700080000002040080000D0010008F9
:1007D000680D000840080020600600003402000890
:1007E000021D00011006B20C0000E5041006180DF1
:1007F00000004B04127E0412B00412E3101006161F
:100800000E00004904127B0412AE0412E010100620
:10081000120F0000450412760412A80412DA101018
:10082000060B1000003C04126D04129E0412CE044C
:1008300012FE1410062E1100005E04128D0412BC6C
:100840000412EB101006191200004704127504126E
:10085000A20412CF0412FC14100628130000540442
:10086000127F0412AA0412D40412FE1410062814D3
:100870000000510412790412A20412C90412F014E7
:100880001006171500003D0412620412870412AC12
:100890000412CF0412F318100615160000370412C4
:1008A0005904127A04129A0412BA0412D80412F7E4
:1008B0001C1006141700003204124E04126A0412AF
:1008C0008504129F0412B90412D10412EA20170100
:1008D00018141104122E04124404125804126C0449
:1008E000127F0412920412A30412B40412C404125C
:1008F000D40412E20412F00412FD38130A19841110
:1009000004122004122A04123304123B041243047A
:10091000124A04125004125504125904125D0412B2
:100920006004126204126304526408526218525D39
:1009300028525538524A48523B58522A6821702151
:100940007852FD8852E29852C4A852A3B8527FC888
:100950005258D8522EE821F056EA0056B910568562
:1009600020564E30253856F74856BA58567A6825DC
:1009700070257856F38856AC985662A825B056F084
:10098000C056A2D025D825E056FEF05AAA00290864
:1009900029105AFC205AA230293829405AEB505AC3
:1009A0008D6029685AFE785A9E88299029985ADACB
:1009B000A85A76B829C05AE0D05A7BE029E85AE311
:1009C000F85E7E08032D10032D18032D2003127FDF
:1009D00004124C041E192C0317E60B50110412814B
:1009E00004124E04121B101006E90A0000B604128D
:1009F0008404125204121F1013EE09A41104128A67
:100A0000041259041228101006F7080000C6041238
:100A1000960412660412360412061413D707A411A2
:100A200004127904124B04121D101006EF06000088
:100A3000C204129504126804123C0412101417E543
:100A4000057C1104129004126604123C0412131463
:100A500013EB04301104129B04127404124D04129F
:100A600027041202181006DD030000B804129504D2
:100A7000127104124F04122D04120B181006EA0210
:100A80000000CA0412AA04128C04126D041250044D
:100A900012320412161C1006FA010000DF0412C5FF
:100AA0000412AB04129304127A04126304124C046D
:100AB000123604122004120C281EF8500412E50409
:100AC00012D2041EC15C0412B00412A004129004DD
:100AD000128204127404126704125A04124F041290
:100AE0004404123A04123104122904122104121A85
:100AF000041DDF031E00570416005F16000F1200CE
:100B0000C712008F5F0001B404520110520420523A
:100B10000B30521440522150523160524470525A9C
:100B2000805274905290A052B0B052D2C021C8529C
:100B30000CD85236E85263F856930856C51825204B
:100B4000561630565040568C5025582560560B701E
:100B5000564F8056959025985602A8564DB8569BEC
:100B6000C825D05613E05666F025F829005A101013
:100B70005A6820292829305A1D405A795029585A34
:100B800006685A6678298029885A28985A8AA82996
:100B9000B05A1FC05A84D029D85A1BE85A81F82D60
:100BA00000035E1910032D18032D44061A8A2C1A0F
:100BB00014981A9EC04F280A34031E3C1C061EC6F9
:100BC000A0031E50B0054FDA16D8041807EE1B001C
:100BD00000781E9415A11F8C2378031626801E28EA
:100BE00024051E2B4C05100A2D00003E300000C8C5
:100BF00032841006350000DC37B415BD1FF03CC44C
:100C000005163FEC14054200008EC91F1847080660
:100C100010064900002C4CA414064E0000405168F8
:100C20001E533C061406560000DE58141C0A5B00D6
:100C300000F25D00007C605C031663381A65141CCA
:100C400006680000A46ACC05166D7818096F0000CC
:100C500042720000CC051F56770C041E7904061C56
:100C6000067C0000F47EFC061C068100000884E07F
:100C7000051C0E8600001C890000A68B0000308E2B
:100C80003C0619291F4493D8061E9508061E98ECA9
:100C9000051E9A0C061C0A9D0000F69F000080A20B
:100CA00078051C0AA5000094A700001EAA14071EC0
:100CB000AC5C061EAFF006180AB1000046B4000096
:100CC000D0B6781C0AB90000E4BB00006EBE240355
:100CD0001AC07C1EC3300316C6901EC824061ECB45
:100CE000F0061809CD000034D00000BE811B48D5A5
:100CF000881C06D700005CDA6C041C06DC0000705F
:100D0000DF840316E1941C0EE400000EE700009857
:100D1000E9000022ECF00616EED81C06F10000C037
:100D2000F354061EF684061D7D034F5EFBD4071E9A
:100D3000991C06140632330000CB241F6466140687
:100D4000127F6C14069900002FB3601006CC0000CF
:100D500061E65442FF08211021182120212821306A
:080D6000213821402148000068
:040000050800019559
:00000001FF
